47503938150325930001201512312016081120151231074100005881SOL000000000004910ROSAS ZEVALLOS ANDRES TADEO   0000000000000000000000000000000000000000000000000000000000000000000000000000000000000004910448269                               170329855647
01800000214006100001201512312016081120151231074100000268SOL000000000004910ROMERO VARGAS DEYVI EFRAIN    0000000000000000000000000000000000000000000000000000000000000000000000000000000000000004910446412                               081627125278
01800000216010100001201512312016081120151231074200001468SOL000000000004910OLIVA NAVARRETE RICHI ANDERSON0000000000000000000000000000000000000000000000000000000000000000000000000000000000000004910445531                               093844366805
01800000216018090001201512312016081120151231078100000585SOL000000000004910CARRANZA OSORIO FREDERICK ANTH0000000000000000000000000000000000000000000000000000000000000000000000000000000000000004910445989                               092642323869
01800000505017100001201512312016081120151231074100004671SOL000000000004910AGURTO CAMPOS NERY CRISTINA   0000000000000000000000000000000000000000000000000000000000000000000000000000000000000004910447885                               091453282955
01800000513009100001201512312016081120151231074100000334SOL000000000014610RODRIGUEZ FLORES MIGUEL ANGEL 0000000000000000000000000000000000000000000000000000000000000000000000000000000000000014610446634                               165150814388
01800002034041070001201512312016081120151231080100003541SOL000000000018760VILLANUEVA CASTANEDA ERIC LEAN0000000000000000000000000000000000000000000000000000000000000000000000000000000000000018760447647                               154919592926
01800002713005080001201512312016081120151231081300001375SOL000000000026610DIAZ ROJAS JUNIOR PAVEL       0000000000000000000000000000000000000000000000000000000000000000000000000000000000000026610448099                               145410418473
01800002729011100001201512312016081120151231081300003602SOL000000000016910FUENTES FONSECA LEIDY SHERENE 0000000000000000000000000000000000000000000000000000000000000000000000000000000000000016910447973                               124709068350
01800002827010070001201512312016081120151231081300003602SOL000000000021760CASTANEDA MORA KATHERIN FIOREL0000000000000000000000000000000000000000000000000000000000000000000000000000000000000021760447752                               165501825764
01800005111008100001201512312016081120151231074100004670SOL000000000004910RIVERA MARTINEZ MARIA DEL PILA0000000000000000000000000000000000000000000000000000000000000000000000000000000000000004910447794                               102602546493
01800005116012100001201512312016081120151231074100000025SOL000000000004910CHAVEZ CORTAVITARTE TAYLOR ALE0000000000000000000000000000000000000000000000000000000000000000000000000000000000000004910447167                               112828789164
01800010101004160001201512312016081120151231074100004670SOL000000000004910VENTURA LOZANO ERICKA LUCERO  0000000000000000000000000000000000000000000000000000000000000000000000000000000000000004910447385                               103717590143
01800010101007160001201512312016081120151231074100002984SOL000000000004910GARNIKA JAIME CARLOS  ENMANUEL0000000000000000000000000000000000000000000000000000000000000000000000000000000000000004910448159                               084827201553
01800010105003150001201512312016081120151231074100002984SOL000000000004910TUYA GUERRERO SOFIA BEATRIZ   0000000000000000000000000000000000000000000000000000000000000000000000000000000000000004910446325                               115749898784
01800010105003160001201512312016081120151231075700002379SOL000000000004910RAZA CALDERON CAROLINA BEATRIZ0000000000000000000000000000000000000000000000000000000000000000000000000000000000000004910447379                               090901263498
01800010105004120001201512312016081120151231074100000271SOL000000000004910MENDEZ GUTIERREZ XIOMARA  MILA0000000000000000000000000000000000000000000000000000000000000000000000000000000000000004910446874                               112346770904
01800010105009140001201512312016081120151231074100002984SOL000000000004910MERCEDES SAUCEDO NOE JONATHAN 0000000000000000000000000000000000000000000000000000000000000000000000000000000000000004910447756                               120008907007
01800010105011150001201512312016081120151231074700001832SOL000000000004910ANGULO VALDEZ ALFREDO EDILBERT0000000000000000000000000000000000000000000000000000000000000000000000000000000000000004910446660                               114259844248
01800010105012160001201512312016081120151231074100002984SOL000000000004910CAVA IPARRAGUIRRE CARLOS CHRIS0000000000000000000000000000000000000000000000000000000000000000000000000000000000000004910446911                               100257457900
01800010105015160001201512312016081120151231075700002377SOL000000000004910VEGA PAREDES BREYSI ESTEFANIA 0000000000000000000000000000000000000000000000000000000000000000000000000000000000000004910447331                               095609431917
01800010107007130001201512312016081120151231074100009637SOL000000000004910MALLQUI VELASQUEZ JUAN  ADOLFO0000000000000000000000000000000000000000000000000000000000000000000000000000000000000004910447712                               105126645780
01800010107009160001201512312016081120151231074300001701SOL000000000004910VILLEGAS ALVARADO ERIKA MILAGR0000000000000000000000000000000000000000000000000000000000000000000000000000000000000004910447392                               111659745336
01800010107011110001201512312016081120151231074100002285SOL000000000004910ALVA SEGURA JERZY STEFAN      0000000000000000000000000000000000000000000000000000000000000000000000000000000000000004910448125                               082411140167
01800010109004150001201512312016081120151231074100000333SOL000000000004910CAMACHO CALDERON PAMELA ASTRID0000000000000000000000000000000000000000000000000000000000000000000000000000000000000004910447590                               135016245421
01800010109005160001201512312016081120151231077100003814SOL000000000004910GARCIA VASQUEZ ANDREA ALEXANDR0000000000000000000000000000000000000000000000000000000000000000000000000000000000000004910447709                               093327348058
01800010109011160001201512312016081120151231074300001701SOL000000000004910REYES VALDIVIA INGRID DE LOS A0000000000000000000000000000000000000000000000000000000000000000000000000000000000000004910448202                               102905558601
01800010109013160001201512312016081120151231074100002286SOL000000000004910CAMPOS NAZARIO CLAUDIA VALESKA0000000000000000000000000000000000000000000000000000000000000000000000000000000000000004910447658                               113634820066
01800010109014160001201512312016081120151231077100003814SOL000000000004910ALVA POLO MAYRA ALEJANDRA     0000000000000000000000000000000000000000000000000000000000000000000000000000000000000004910447923                               130011109164
01800010111001130001201512312016081120151231074100002286SOL000000000004910MENDOCILLA VALENCIA FRANKLIN I0000000000000000000000000000000000000000000000000000000000000000000000000000000000000004910446905                               145559423481
01800010111002140001201512312016081120151231075700002377SOL000000000004910VARELA AVILA BERTHA KATHERINNE0000000000000000000000000000000000000000000000000000000000000000000000000000000000000004910447117                               102917559378
01800010111006130001201512312016081120151231075700002379SOL000000000004910VERA ABANTO MARIA NELLY       0000000000000000000000000000000000000000000000000000000000000000000000000000000000000004910447857                               101651511250
01800010111007130001201512312016081120151231074100005646SOL000000000004910ARANGURI CAMACHO DANITZA WENDY0000000000000000000000000000000000000000000000000000000000000000000000000000000000000004910448026                               121642966346
01800010111008150001201512312016081120151231074100000268SOL000000000004910SANCHEZ QUIROZ ALEXIS OSWALDO 0000000000000000000000000000000000000000000000000000000000000000000000000000000000000004910446327                               114551855115
01800010111009160001201512312016081120151231074300001701SOL000000000004910DE LA CRUZ MARCO MELINA ELIZAB0000000000000000000000000000000000000000000000000000000000000000000000000000000000000004910447099                               110001679353
01800010111011160001201512312016081120151231077100003809SOL000000000004910RAMOS OLIVA ERICK MARIO       0000000000000000000000000000000000000000000000000000000000000000000000000000000000000004910447083                               080940111650
01800010111014150001201512312016081120151231074100000334SOL000000000004910JARA SOLORZANO LIVELY KATHY   0000000000000000000000000000000000000000000000000000000000000000000000000000000000000004910447770                               103840595530
01800010113001160001201512312016081120151231074100004671SOL000000000004910LAZARO CALUA ERICK ALFREDO    0000000000000000000000000000000000000000000000000000000000000000000000000000000000000004910445736                               105003640281
01800010113010160001201512312016081120151231074100009637SOL000000000004910POSADA LEIVA JAN PIERR        0000000000000000000000000000000000000000000000000000000000000000000000000000000000000004910445782                               155807623391
01800010113014120001201512312016081120151231074100004671SOL000000000004910MURGA FERNANDEZ JORDAN JEAN  P0000000000000000000000000000000000000000000000000000000000000000000000000000000000000004910445642                               112357771602
01800010113015150001201512312016081120151231074100004670SOL000000000019460JARA HORNA OLIVER JAVIER      0000000000000000000000000000000000000000000000000000000000000000000000000000000000000019460445592                               131953165997
01800010113017160001201512312016081120151231075700004516SOL000000000004910FLORES POLO CESAR ANTONIO     0000000000000000000000000000000000000000000000000000000000000000000000000000000000000004910445657                               162829730221
01800010113019160001201512312016081120151231074100004670SOL000000000004910LLONTOP AGUIRRE DIEGO ALBERTO 0000000000000000000000000000000000000000000000000000000000000000000000000000000000000004910445809                               101315497344
01800010114001160001201512312016081120151231077100003809SOL000000000004910TICLIA CRUZADO JOSE MIGUEL    0000000000000000000000000000000000000000000000000000000000000000000000000000000000000004910446914                               101839518265
01800010115001160001201512312016081120151231074100009637SOL000000000004910CASTILLO VASQUEZ DEYVI BRANCO 0000000000000000000000000000000000000000000000000000000000000000000000000000000000000004910447900                               142523338993
01800010116002120001201512312016081120151231074100004670SOL000000000004910BRACAMONTE LEON ROSMERY       0000000000000000000000000000000000000000000000000000000000000000000000000000000000000004910447033                               120830936991
01800010116002160001201512312016081120151231074100005645SOL000000000004910ORTIZ VARGAS ANTHONY JUAN     0000000000000000000000000000000000000000000000000000000000000000000000000000000000000004910446140                               121723968935
01800010116003140001201512312016081120151231075700002377SOL000000000004910VELASQUEZ LULIMACHE WILMER AND0000000000000000000000000000000000000000000000000000000000000000000000000000000000000004910446262                               165349821592
01800010116005160001201512312016081120151231077100003814SOL000000000004910ACOSTA GONZALES JUOMIRA CAROLI0000000000000000000000000000000000000000000000000000000000000000000000000000000000000004910446236                               120822936548
01800010116008160001201512312016081120151231074100005881SOL000000000004910ASMAT REYNA EDGAR JOSE        0000000000000000000000000000000000000000000000000000000000000000000000000000000000000004910447195                               114315845211
01800010116012160001201512312016081120151231074900002391SOL000000000004910AVALOS OBANDO PIERO BRAYAMS   0000000000000000000000000000000000000000000000000000000000000000000000000000000000000004910446300                               145917432652
01800010116014160001201512312016081120151231074100002286SOL000000000004910HUAMAN CERNA FABIAN ALEXANDER 0000000000000000000000000000000000000000000000000000000000000000000000000000000000000004910446044                               124551064174
01800010116015150001201512312016081120151231074100002984SOL000000000004910BENITES LOPEZ FIORELLA CINTHIA0000000000000000000000000000000000000000000000000000000000000000000000000000000000000004910445972                               080816108893
01800010116016160001201512312016081120151231074900002390SOL000000000004910LOYOLA VILLAVICENCIO DIANA CAR0000000000000000000000000000000000000000000000000000000000000000000000000000000000000004910446457                               153235536345
01800010116018140001201512312016081120151231077100006773SOL000000000004910CARRERA MORA AURORA ALEXANDRA 0000000000000000000000000000000000000000000000000000000000000000000000000000000000000004910445922                               130853134992
01800010116018160001201512312016081120151231077100003809SOL000000000004910FERNANDEZ CHAVEZ GUSTAVO PAUL 0000000000000000000000000000000000000000000000000000000000000000000000000000000000000004910446125                               120921939868
01800010119002160001201512312016081120151231081500001499SOL000000000004910SUAREZ CANCINO AMANDA ANITA   0000000000000000000000000000000000000000000000000000000000000000000000000000000000000004910446150                               102117528345
01800010119003160001201512312016081120151231074100005645SOL000000000004910CANCINO CALDERON SALLY KELIT A0000000000000000000000000000000000000000000000000000000000000000000000000000000000000004910446447                               134712237369
01800010119006160001201512312016081120151231074100000331SOL000000000004910SANTISTEBAN HUACANJULCA ETTY M0000000000000000000000000000000000000000000000000000000000000000000000000000000000000004910447178                               153826555934
01800010119008160001201512312016081120151231074100002984SOL000000000004910MEDINA ESPINOZA RODOLFO ALBERT0000000000000000000000000000000000000000000000000000000000000000000000000000000000000004910446982                               131042140377
01800010122005160001201512312016081120151231074100004671SOL000000000004910CRUZ REYNA ANTONY JESUS       0000000000000000000000000000000000000000000000000000000000000000000000000000000000000004910448081                               115039873107
01800010123001150001201512312016081120151231075700002379SOL000000000009760AGREDA SANTILLAN ANGEL MARIANO0000000000000000000000000000000000000000000000000000000000000000000000000000000000000009760446267                               130357120471
01800010123003120001201512312016081120151231076000005485SOL000000000009760MOGOLLON RIVERA LUISA  ANGELA 0000000000000000000000000000000000000000000000000000000000000000000000000000000000000009760446621                               122102981957
01800010123007140001201512312016081120151231074100002286SOL000000000004910AGUIRRE VILLANUEVA MAYER MAITE0000000000000000000000000000000000000000000000000000000000000000000000000000000000000004910446449                               093534355509
01800010124001160001201512312016081120151231076000005485SOL000000000004910REYES SALVATIERRA LENIN ARNOLD0000000000000000000000000000000000000000000000000000000000000000000000000000000000000004910446466                               134129222557
01800010124003160001201512312016081120151231074100000025SOL000000000004910MARCHENA GAMERO MANUEL ALEJAND0000000000000000000000000000000000000000000000000000000000000000000000000000000000000004910446756                               114301844382
01800010124004160001201512312016081120151231074100005760SOL000000000004910OLIVARES CARHUACHIN JHON FRANC0000000000000000000000000000000000000000000000000000000000000000000000000000000000000004910447249                               093609357591
01800010124005160001201512312016081120151231077100003445SOL000000000004910ESCOBEDO CORTIJO MELISSA LISET0000000000000000000000000000000000000000000000000000000000000000000000000000000000000004910446485                               121401956591
01800010124006120001201512312016081120151231074100000268SOL000000000004910LLAJARUNA MORENO HANNY  JARUMY0000000000000000000000000000000000000000000000000000000000000000000000000000000000000004910447395                               080912110691
01800010124007160001201512312016081120151231076000005485SOL000000000004910CHICLAYO OTINIANO JOSSELLYNNE 0000000000000000000000000000000000000000000000000000000000000000000000000000000000000004910446293                               134111221712
01800010124008120001201512312016081120151231074100000268SOL000000000004910QUISPE CORREA JAMES  HENDERSON0000000000000000000000000000000000000000000000000000000000000000000000000000000000000004910447373                               080903110401
01800010124008160001201512312016081120151231076000005485SOL000000000004910AMAYA CASTANEDA DAYSI JENNIFER0000000000000000000000000000000000000000000000000000000000000000000000000000000000000004910446924                               134046220648
01800010124011160001201512312016081120151231074100000331SOL000000000004910VIGO PAJARES WENDY GISSELL    0000000000000000000000000000000000000000000000000000000000000000000000000000000000000004910446864                               082952151850
01800010126002160001201512312016081120151231074100002285SOL000000000004910VASQUEZ MORENO CINTHYA ANABEL 0000000000000000000000000000000000000000000000000000000000000000000000000000000000000004910447644                               114427849823
01800010126003130001201512312016081120151231074100000271SOL000000000004910BAZAN ROJAS MARCIA STEPHANIE  0000000000000000000000000000000000000000000000000000000000000000000000000000000000000004910446018                               103659588947
01800010127002160001201512312016081120151231074100004671SOL000000000004910RABINES FLOREANO MADELEINE GIL0000000000000000000000000000000000000000000000000000000000000000000000000000000000000004910446304                               105352655378
01800010132005120001201512312016081120151231074100002286SOL000000000004910ROJAS VILLACORTA KAREN  LISSET0000000000000000000000000000000000000000000000000000000000000000000000000000000000000004910446981                               140641288938
01800010135004140001201512312016081120151231077100003809SOL000000000004910MONTOYA VASQUEZ RODRIGO ENRIQU0000000000000000000000000000000000000000000000000000000000000000000000000000000000000004910447868                               102054526911
01800010135004160001201512312016081120151231074100004670SOL000000000004910MORENO PAJARES TATIANA ANABEL 0000000000000000000000000000000000000000000000000000000000000000000000000000000000000004910447971                               101545507009
01800010136003120001201512312016081120151231078100003723SOL000000000004910CASTILLO AGUIRRE CARLOS  JIBAN0000000000000000000000000000000000000000000000000000000000000000000000000000000000000004910447215                               164338784994
01800010137002160001201512312016081120151231074100000271SOL000000000004910ROMERO RODRIGUEZ CARLOS ELIAS 0000000000000000000000000000000000000000000000000000000000000000000000000000000000000004910447296                               152139501179
01800010137004160001201512312016081120151231074100004670SOL000000000004910CISNEROS PALMA KATIA REGINA   0000000000000000000000000000000000000000000000000000000000000000000000000000000000000004910446200                               095550430698
01800010140010160001201512312016081120151231075700002379SOL000000000004910CASTILLO ROGEL MAYELI AURORA  0000000000000000000000000000000000000000000000000000000000000000000000000000000000000004910446848                               135731264512
01800010201004160001201512312016081120151231075600001026SOL000000000004910JIMENEZ ESPEJO RENATTO JOSE   0000000000000000000000000000000000000000000000000000000000000000000000000000000000000004910446807                               091322277888
01800010201005160001201512312016081120151231074100005640SOL000000000004910RAMOS OCAS GERALDINE ALEJANDRA0000000000000000000000000000000000000000000000000000000000000000000000000000000000000004910447734                               150714456584
01800010204004160001201512312016081120151231074100002285SOL000000000004910RAFAEL AMAYA ROLY ANDERSON    0000000000000000000000000000000000000000000000000000000000000000000000000000000000000004910446785                               081736127368
01800010204005140001201512312016081120151231030100006753SOL000000000004910PASAPERA ROJAS DAYAN KAROL    0000000000000000000000000000000000000000000000000000000000000000000000000000000000000004910447046                               122723003842
01800010205003150001201512312016081120151231074100009637SOL000000000014610CARRIL LANCHO ROSA PAOLA      0000000000000000000000000000000000000000000000000000000000000000000000000000000000000014610447439                               095503427603
01800010205004150001201512312016081120151231074100001991SOL000000000004910NIQUE CASTILLO ANDREA VANESSA 0000000000000000000000000000000000000000000000000000000000000000000000000000000000000004910446413                               092052303916
01800010205005160001201512312016081120151231074100002287SOL000000000004910JACOBO POLO SANTIAGO DAVID    0000000000000000000000000000000000000000000000000000000000000000000000000000000000000004910446931                               094459389858
01800010205015120001201512312016081120151231074100002287SOL000000000004910HUACANJULCA AYAY WILL JOEL    0000000000000000000000000000000000000000000000000000000000000000000000000000000000000004910446451                               084331187792
01800010205023130001201512312016081120151231074100002287SOL000000000004910SICCHA AVALOS DAMARIS  ELIZABE0000000000000000000000000000000000000000000000000000000000000000000000000000000000000004910448180                               143629369309
01800010207013160001201512312016081120151231080500001714SOL000000000004910PAREDES GARCIA EDWIN CESAR AUG0000000000000000000000000000000000000000000000000000000000000000000000000000000000000004910448152                               091215274167
01800010207018150001201512312016081120151231074100002984SOL000000000009760MEDINA ESPINOZA JAMILA SILENA 0000000000000000000000000000000000000000000000000000000000000000000000000000000000000009760448198                               131034140037
01800010207018160001201512312016081120151231074100002287SOL000000000004910PERICHE VERGARA ROLANDO JUNIOR0000000000000000000000000000000000000000000000000000000000000000000000000000000000000004910447920                               112756787046
01800010207021140001201512312016081120151231074100005880SOL000000000014610LLANOS GASTANADUY DIANA  BREND0000000000000000000000000000000000000000000000000000000000000000000000000000000000000014610447834                               125056080437
01800010209003150001201512312016081120151231074100004671SOL000000000004910ACOSTA CHAVEZ HILARY NICOLE   0000000000000000000000000000000000000000000000000000000000000000000000000000000000000004910447693                               105429657693
01800010209003160001201512312016081120151231077100003445SOL000000000004910GARCIA ALFARO ANYI STEPHANIE  0000000000000000000000000000000000000000000000000000000000000000000000000000000000000004910447705                               130030110180
01800010209006130001201512312016081120151231075700004515SOL000000000004910ARTEAGA SAENZ PAMELA ETERVIRA 0000000000000000000000000000000000000000000000000000000000000000000000000000000000000004910447716                               171018879021
01800010209006160001201512312016081120151231074100001991SOL000000000004910FLORES HERRERA LISBETH STEFANY0000000000000000000000000000000000000000000000000000000000000000000000000000000000000004910447674                               162727726486
01800010209011160001201512312016081120151231077100003809SOL000000000004910GALLARDO GAMARRA FLOR DE MARIA0000000000000000000000000000000000000000000000000000000000000000000000000000000000000004910447698                               121306953218
01800010209018160001201512312016081120151231075400001519SOL000000000004910ROSARIO MARINOS LUREN MAKEY   0000000000000000000000000000000000000000000000000000000000000000000000000000000000000004910447604                               100727475052
01800010211004160001201512312016081120151231074100004671SOL000000000004910NURENA FLORES LUZ ELENA       0000000000000000000000000000000000000000000000000000000000000000000000000000000000000004910447410                               151148470135
01800010213002160001201512312016081120151231074100001991SOL000000000004910CORDOVA CORDOVA ELIAS         0000000000000000000000000000000000000000000000000000000000000000000000000000000000000004910445714                               141258305798
01800010213006160001201512312016081120151231074100004671SOL000000000004910VIERA MORENO SHEYLA MARIEL    0000000000000000000000000000000000000000000000000000000000000000000000000000000000000004910445761                               104924637763
01800010213009160001201512312016081120151231074100004671SOL000000000004910BAZAN PAJUELO VICTOR YURY     0000000000000000000000000000000000000000000000000000000000000000000000000000000000000004910445906                               160839660429
01800010213010160001201512312016081120151231074100009637SOL000000000004910VILCHEZ VASQUEZ JUAN LEONARDO 0000000000000000000000000000000000000000000000000000000000000000000000000000000000000004910445654                               164107775679
01800010213011140001201512312016081120151231075600001630SOL000000000004910GUTIERREZ PEREZ MARTHA MARICRU0000000000000000000000000000000000000000000000000000000000000000000000000000000000000004910446937                               153718552089
01800010213012160001201512312016081120151231009900003768SOL000000000004910LLAURE VASQUEZ SILVIA STEFANY 0000000000000000000000000000000000000000000000000000000000000000000000000000000000000004910445650                               142513338548
01800010213014160001201512312016081120151231074100000271SOL000000000004910MEGO PINILLOS MELINA ANDREA   0000000000000000000000000000000000000000000000000000000000000000000000000000000000000004910445855                               155621617022
01800010213017140001201512312016081120151231074400002424SOL000000000004910VARGAS VARGAS KAROLINE DEL CAR0000000000000000000000000000000000000000000000000000000000000000000000000000000000000004910445523                               164701797460
01800010213018160001201512312016081120151231075700002383SOL000000000004910ZAMBRANO FLORES RENZO FAVIO   0000000000000000000000000000000000000000000000000000000000000000000000000000000000000004910445612                               150654455585
01800010213019150001201512312016081120151231074100004670SOL000000000004910DEL ROSARIO YBANEZ JOSE RENATO0000000000000000000000000000000000000000000000000000000000000000000000000000000000000004910445775                               105437658175
01800010213020160001201512312016081120151231074100002984SOL000000000004910TANTACHUCO RUIZ MIGUEL ANGEL  0000000000000000000000000000000000000000000000000000000000000000000000000000000000000004910446069                               154800588350
01800010215002160001201512312016081120151231074300001701SOL000000000004910MERCADO CASTANEDA JOSE CARLOS 0000000000000000000000000000000000000000000000000000000000000000000000000000000000000004910446518                               123020013682
01800010216001160001201512312016081120151231074100002984SOL000000000004910ARGOMEDO REYES MARIA INES     0000000000000000000000000000000000000000000000000000000000000000000000000000000000000004910445574                               095102412552
01800010216003140001201512312016081120151231074100004670SOL000000000004910GHINCIULESCOU ALZA ION  CRISTI0000000000000000000000000000000000000000000000000000000000000000000000000000000000000004910446988                               110137685640
01800010216004150001201512312016081120151231075600001630SOL000000000004910VERBEECK CASTILLO VICTOR JOSE 0000000000000000000000000000000000000000000000000000000000000000000000000000000000000004910446499                               163758764002
01800010216014160001201512312016081120151231077100003809SOL000000000004910CHAVEZ BARRERA ANGIE NICOLY   0000000000000000000000000000000000000000000000000000000000000000000000000000000000000004910445766                               120810935838
01800010216016160001201512312016081120151231074100002984SOL000000000004910SANDOVAL LATOCHE MARKO ALFONSO0000000000000000000000000000000000000000000000000000000000000000000000000000000000000004910445600                               092310311905
01800010216017110001201512312016081120151231074100001991SOL000000000004910LEYVA VALLEJOS ALEJANDRO      0000000000000000000000000000000000000000000000000000000000000000000000000000000000000004910445808                               103813593735
01800010216018160001201512312016081120151231075700004516SOL000000000004910ABAD BOYER LESLY PAMELA       0000000000000000000000000000000000000000000000000000000000000000000000000000000000000004910445959                               103912597703
01800010219004160001201512312016081120151231074100005759SOL000000000004910VILLAGARAY SANCHEZ ANDERSON WI0000000000000000000000000000000000000000000000000000000000000000000000000000000000000004910446591                               130115112452
01800010223002130001201512312016081120151231075700002377SOL000000000004910MINCHOLA QUISPE KARINA MILAGRO0000000000000000000000000000000000000000000000000000000000000000000000000000000000000004910446622                               154530580056
01800010223003120001201512312016081120151231074100000334SOL000000000004910ZAVALA ESPINOZA YELPSIN DEYVIS0000000000000000000000000000000000000000000000000000000000000000000000000000000000000004910445856                               134958244614
01800010223007160001201512312016081120151231074100004671SOL000000000004910BOTTON MENDOZA BETSABE        0000000000000000000000000000000000000000000000000000000000000000000000000000000000000004910446297                               114552855195
01800010224003160001201512312016081120151231074100000333SOL000000000004910JAUREGUI CABRERA SANDRA LOANA 0000000000000000000000000000000000000000000000000000000000000000000000000000000000000004910446374                               111219727312
01800010224006160001201512312016081120151231074100002285SOL000000000004910ALVARADO LUJAN NAYSHA BETSABE 0000000000000000000000000000000000000000000000000000000000000000000000000000000000000004910446900                               111152725588
01800010224009160001201512312016081120151231074100002287SOL000000000004910VENTURA AVALOS YULISSA MARIBEL0000000000000000000000000000000000000000000000000000000000000000000000000000000000000004910447139                               094339384891
01800010225001160001201512312016081120151231075700004515SOL000000000004910VILLACORTA RADAS ADRIA CRISTIN0000000000000000000000000000000000000000000000000000000000000000000000000000000000000004910447211                               093244345344
01800010225011150001201512312016081120151231074100000331SOL000000000007410HARO CASTANEDA MARA YOSELYNE  0000000000000000000000000000000000000000000000000000000000000000000000000000000000000007410447583                               172245920590
01800010226001160001201512312016081120151231074100005759SOL000000000004910ESQUIVEL DOMINGUEZ SOFIA ALEXA0000000000000000000000000000000000000000000000000000000000000000000000000000000000000004910446206                               080732107562
01800010227004160001201512312016081120151231074400002966SOL000000000004910FLORES LARA RENZO PIERO       0000000000000000000000000000000000000000000000000000000000000000000000000000000000000004910446432                               091304276822
01800010227007160001201512312016081120151231074100003211SOL000000000004910ESPINOLA BENITES JENNER JOHANN0000000000000000000000000000000000000000000000000000000000000000000000000000000000000004910446728                               170513861647
01800010227010150001201512312016081120151231074100004670SOL000000000024310PAREDES BAZAN JHON STHIVEN    0000000000000000000000000000000000000000000000000000000000000000000000000000000000000024310446583                               143326360777
01800010229001140001201512312016081120151231077100003809SOL000000000004910CAVERO IBANEZ WILLY YORDY ALEX0000000000000000000000000000000000000000000000000000000000000000000000000000000000000004910448243                               161227673712
01800010232010130001201512312016081120151231074100000331SOL000000000004910ACOSTA RIVEROS ANGHELA MILAGRI0000000000000000000000000000000000000000000000000000000000000000000000000000000000000004910447994                               133954218327
01800010234001160001201512312016081120151231075700002379SOL000000000004910DEZA HIUGUAY BRUNO ADALBERTO  0000000000000000000000000000000000000000000000000000000000000000000000000000000000000004910446706                               081315119027
01800010234008140001201512312016081120151231074100005880SOL000000000004910HUAMANCHUMO SIMON LUIS EDUARDO0000000000000000000000000000000000000000000000000000000000000000000000000000000000000004910446977                               155659619378
01800010236004160001201512312016081120151231077100003808SOL000000000004910VELASQUEZ TRELLES ROGER EDUARD0000000000000000000000000000000000000000000000000000000000000000000000000000000000000004910446614                               125621097327
01800010237006160001201512312016081120151231074100000331SOL000000000004910DIAS LOPEZ BRIGIT NATIVEL     0000000000000000000000000000000000000000000000000000000000000000000000000000000000000004910446576                               154750587779
01800010237008160001201512312016081120151231075700002377SOL000000000004910GAMBOA VILLARROEL ROMINA ANAHI0000000000000000000000000000000000000000000000000000000000000000000000000000000000000004910446502                               134837241077
01800010237009160001201512312016081120151231074100005881SOL000000000004910PERALTA VILLAR OLGA MARILYN   0000000000000000000000000000000000000000000000000000000000000000000000000000000000000004910446546                               091122271174
01800010237011160001201512312016081120151231074100000271SOL000000000004910QUIROZ LOPEZ YESY             0000000000000000000000000000000000000000000000000000000000000000000000000000000000000004910446448                               095121413713
01800010240008130001201512312016081120151231074100001991SOL000000000004910RAMIREZ FERNANDEZ CESAR WILFRE0000000000000000000000000000000000000000000000000000000000000000000000000000000000000004910447054                               114537854318
01800010240010160001201512312016081120151231074100004671SOL000000000004910SALAS CANGALAYA ALVARO HAROL  0000000000000000000000000000000000000000000000000000000000000000000000000000000000000004910448092                               154513579036
01800010240012140001201512312016081120151231074100000271SOL000000000004910CASTANEDA ASPAJO JOSE FERNANDO0000000000000000000000000000000000000000000000000000000000000000000000000000000000000004910447030                               095311420557
01800010307005150001201512312016081120151231074200001468SOL000000000004910SUAREZ VITERI MARIAJOSE       0000000000000000000000000000000000000000000000000000000000000000000000000000000000000004910448191                               161856696325
01800010316001130001201512312016081120151231074100001991SOL000000000009760REBAZA RAMIREZ ORLANDO MARTIN 0000000000000000000000000000000000000000000000000000000000000000000000000000000000000009760446092                               091301276672
01800010316002160001201512312016081120151231074900002390SOL000000000004910BENITES PEREDA CARLOS ANTONIO 0000000000000000000000000000000000000000000000000000000000000000000000000000000000000004910446282                               152210502841
01800010316004140001201512312016081120151231074300001702SOL000000000004910VASQUEZ LUPERDI KARINA FIORELL0000000000000000000000000000000000000000000000000000000000000000000000000000000000000004910445769                               104013601581
01800010324001160001201512312016081120151231074100002285SOL000000000004910TIRADO GOMEZ FELIPE ISAIAS    0000000000000000000000000000000000000000000000000000000000000000000000000000000000000004910445888                               082102133922
01800010336001160001201512312016081120151231081100000815SOL000000000004910ORBEZO ALVAREZ GEORGE JOHN    0000000000000000000000000000000000000000000000000000000000000000000000000000000000000004910446658                               100941483554
01800010405003110001201512312016081120151231074100000331SOL000000000004910REYES VARAS LASTENIA KARIN    0000000000000000000000000000000000000000000000000000000000000000000000000000000000000004910446667                               082027132752
01800010405006140001201512312016081120151231074200001469SOL000000000004910RIOS RUIZ KAREN OFELIA        0000000000000000000000000000000000000000000000000000000000000000000000000000000000000004910447213                               112716784360
01800010407001150001201512312016081120151231074800001517SOL000000000004910SANCHEZ HUALTIBAMBA BRENDA LIS0000000000000000000000000000000000000000000000000000000000000000000000000000000000000004910447588                               131810161266
01800010407002150001201512312016081120151231074400001625SOL000000000004910RAMIREZ HUANGAL LOIDA EUNICE  0000000000000000000000000000000000000000000000000000000000000000000000000000000000000004910448064                               150359446851
01800010411004150001201512312016081120151231074400001625SOL000000000004910ABANTO ROBLES ESTHER DEL ROCIO0000000000000000000000000000000000000000000000000000000000000000000000000000000000000004910447852                               151734488105
01800010413001160001201512312016081120151231075700002377SOL000000000004910GALDOS GELDRES CRISTIAM FERNAN0000000000000000000000000000000000000000000000000000000000000000000000000000000000000004910445935                               144828402712
01800010416003150001201512312016081120151231074100001991SOL000000000004910ABANTO RUIZ LORIANY CAROLINA  0000000000000000000000000000000000000000000000000000000000000000000000000000000000000004910445552                               102340537629
01800010424002150001201512312016081120151231074100002285SOL000000000004910MERCADO GENOVEZ JHOSELYNE ANAI0000000000000000000000000000000000000000000000000000000000000000000000000000000000000004910446826                               113739824199
01800010425003150001201512312016081120151231063100003777SOL000000000009760SEMINARIO ABAD LUCY ELIZABETH 0000000000000000000000000000000000000000000000000000000000000000000000000000000000000009760447272                               083219157227
01800010434001160001201512312016081120151231074100000331SOL000000000004910SANCHEZ RODRIGUEZ ONASIS TOMAS0000000000000000000000000000000000000000000000000000000000000000000000000000000000000004910447148                               112007757035
01800010440001150001201512312016081120151231077100003814SOL000000000004910CHUNGA SANCHEZ RICARDO MARTIN 0000000000000000000000000000000000000000000000000000000000000000000000000000000000000004910447010                               080730107517
01800010440002130001201512312016081120151231052500000953SOL000000000004910ESTEVES DIAZ MANUEL ANGEL NEIL0000000000000000000000000000000000000000000000000000000000000000000000000000000000000004910447791                               154958595076
01800010501017160001201512312016081120151231074100000271SOL000000000004910BENITES BARBOZA KATERYN ARIANA0000000000000000000000000000000000000000000000000000000000000000000000000000000000000004910447302                               154203568053
01800010501019160001201512312016081120151231074100004671SOL000000000004910CHAVEZ SANTIVANEZ LARRY MARCK 0000000000000000000000000000000000000000000000000000000000000000000000000000000000000004910447015                               141812319676
01800010504006160001201512312016081120151231074100004671SOL000000000004910TANTACURE VERA LESLIE EDITA LI0000000000000000000000000000000000000000000000000000000000000000000000000000000000000004910446640                               172351924104
01800010505009160001201512312016081120151231074100002984SOL000000000004910COLLANTES GERONIMO MAGUI ALMEN0000000000000000000000000000000000000000000000000000000000000000000000000000000000000004910448025                               125837104519
01800010505012160001201512312016081120151231074100005640SOL000000000004910RONCAL CASTRO CYNTHIA JACKELYN0000000000000000000000000000000000000000000000000000000000000000000000000000000000000004910447226                               104004601017
01800010505014150001201512312016081120151231074100000271SOL000000000004910PINTO YARLEQUE XIMENA ALESSAND0000000000000000000000000000000000000000000000000000000000000000000000000000000000000004910447681                               093843366773
01800010505015160001201512312016081120151231074100004670SOL000000000004910CABEZA CASTILLO ROSITA YSABEL 0000000000000000000000000000000000000000000000000000000000000000000000000000000000000004910447984                               171331890060
01800010505016160001201512312016081120151231074100000334SOL000000000004910VASQUEZ SANCHEZ VERONICA NICOL0000000000000000000000000000000000000000000000000000000000000000000000000000000000000004910448046                               105527661472
01800010505023120001201512312016081120151231075700004516SOL000000000004910DIAZ LLANOS VANESSA LIZBETH   0000000000000000000000000000000000000000000000000000000000000000000000000000000000000004910445770                               122912009886
01800010505024140001201512312016081120151231074400001625SOL000000000004910REYES RONCAL KEYLA BETSABE    0000000000000000000000000000000000000000000000000000000000000000000000000000000000000004910447281                               122407992719
01800010505030150001201512312016081120151231074100005645SOL000000000004910CULQUI LOPEZ DIANA CECILIA    0000000000000000000000000000000000000000000000000000000000000000000000000000000000000004910447383                               111402733789
01800010507002160001201512312016081120151231074100001991SOL000000000007410PAJILLA VILLANUEVA GEORGE MULL0000000000000000000000000000000000000000000000000000000000000000000000000000000000000007410447519                               102034525697
01800010507022160001201512312016081120151231078100000581SOL000000000004910RODRIGUEZ PINO DUWER BETMAN   0000000000000000000000000000000000000000000000000000000000000000000000000000000000000004910447936                               125236085790
01800010509014150001201512312016081120151231074400001625SOL000000000004910GONZALES SANCHEZ ESTHER JACQUE0000000000000000000000000000000000000000000000000000000000000000000000000000000000000004910447720                               110902714381
01800010509022160001201512312016081120151231077100003808SOL000000000004910GAVIDIA VELA SASHA DEL PILAR  0000000000000000000000000000000000000000000000000000000000000000000000000000000000000004910447735                               121630965612
01800010509025160001201512312016081120151231074400003105SOL000000000004910LAVADO CRUZ DAYANA DALITH     0000000000000000000000000000000000000000000000000000000000000000000000000000000000000004910447638                               131904163749
01800010510006120001201512312016081120151231077100003809SOL000000000004910GUEVARA AGUILAR VICTOR HUGO   0000000000000000000000000000000000000000000000000000000000000000000000000000000000000004910448264                               081259118485
01800010511001160001201512312016081120151231074100002285SOL000000000004910DE LA CRUZ PAUCAR DIEGO IVAN  0000000000000000000000000000000000000000000000000000000000000000000000000000000000000004910446633                               124548064008
01800010511020140001201512312016081120151231074100004670SOL000000000004910ESPINOLA SANDOVAL MARGARITA IR0000000000000000000000000000000000000000000000000000000000000000000000000000000000000004910447242                               171009878465
01800010511023160001201512312016081120151231074100000271SOL000000000004910ALVARADO QUIROZ ALFREDO ENRIQU0000000000000000000000000000000000000000000000000000000000000000000000000000000000000004910446526                               081023113194
01800010511028150001201512312016081120151231075700002379SOL000000000004910LINAN DE LA CRUZ ERICKA LINEYR0000000000000000000000000000000000000000000000000000000000000000000000000000000000000004910447003                               164446789062
01800010512044160001201512312016081120151231074100005880SOL000000000004910VIDAURRE LUYO RICHARD ALEJANDR0000000000000000000000000000000000000000000000000000000000000000000000000000000000000004910446410                               134719237752
01800010513001160001201512312016081120151231074100009637SOL000000000004910ARANDA RAMIREZ GIANPOOL MANUEL0000000000000000000000000000000000000000000000000000000000000000000000000000000000000004910446225                               101659511828
01800010513005160001201512312016081120151231074100000331SOL000000000004910FUNE DIAZ ANDREA ALESANDRA    0000000000000000000000000000000000000000000000000000000000000000000000000000000000000004910445699                               085500220514
01800010513007150001201512312016081120151231077100003809SOL000000000004910RAMOS POLO JOAO FABRIZIO      0000000000000000000000000000000000000000000000000000000000000000000000000000000000000004910446952                               090442249712
01800010513007160001201512312016081120151231075700002377SOL000000000004910MAMANI VARGAS RICARDO KEVIN   0000000000000000000000000000000000000000000000000000000000000000000000000000000000000004910446279                               153343540089
01800010513010120001201512312016081120151231074100000331SOL000000000004910ALVARADO URBINA MILAGROS SEMIR0000000000000000000000000000000000000000000000000000000000000000000000000000000000000004910445568                               102027525236
01800010513013160001201512312016081120151231074100000331SOL000000000004910DIAZ CHAVEZ YHENER LEDWIN     0000000000000000000000000000000000000000000000000000000000000000000000000000000000000004910445636                               153716552034
01800010513015150001201512312016081120151231074400003105SOL000000000009760FLORES CABANILLAS KATICSA LUCI0000000000000000000000000000000000000000000000000000000000000000000000000000000000000009760445689                               125436091858
01800010513015160001201512312016081120151231074100002984SOL000000000004910VARAS RODRIGUEZ JUAN ALFREDO  0000000000000000000000000000000000000000000000000000000000000000000000000000000000000004910447151                               121430958290
01800010513020140001201512312016081120151231080100000974SOL000000000004910POLO CUBA HECTOR DANIEL       0000000000000000000000000000000000000000000000000000000000000000000000000000000000000004910445830                               152339507459
01800010513020160001201512312016081120151231074300001701SOL000000000004910VASQUEZ LUPERDI ANGEL MARTIN  0000000000000000000000000000000000000000000000000000000000000000000000000000000000000004910445874                               104012601477
01800010513028160001201512312016081120151231074100004671SOL000000000004910MENDOZA FERNANDEZ GERSON PIER 0000000000000000000000000000000000000000000000000000000000000000000000000000000000000004910446000                               082948151669
01800010514003160001201512312016081120151231075400001519SOL000000000004910ASENCIO PALMA STHEFANO DECKERT0000000000000000000000000000000000000000000000000000000000000000000000000000000000000004910448041                               120847937958
01800010515003160001201512312016081120151231078100000581SOL000000000004910CORTEZ FLORES DIEGO HERNAN    0000000000000000000000000000000000000000000000000000000000000000000000000000000000000004910446545                               122756005669
01800010515013160001201512312016081120151231074100002287SOL000000000004910VALLE ROSAS JOSUE             0000000000000000000000000000000000000000000000000000000000000000000000000000000000000004910447104                               141733317985
01800010516001160001201512312016081120151231075700004515SOL000000000004910AGUILAR HORNA ELDON MELVER    0000000000000000000000000000000000000000000000000000000000000000000000000000000000000004910446296                               091606287157
01800010516004160001201512312016081120151231075700004515SOL000000000004910CASTRO VARGAS JORGE SALOMON GA0000000000000000000000000000000000000000000000000000000000000000000000000000000000000004910445513                               085255214541
01800010516006160001201512312016081120151231074100002285SOL000000000004910MENDOZA HUERTAS LUIS GUILLERMO0000000000000000000000000000000000000000000000000000000000000000000000000000000000000004910447998                               124410058558
01800010516007160001201512312016081120151231081800004185SOL000000000004910ALFARO JULCA RICARDO MOISES   0000000000000000000000000000000000000000000000000000000000000000000000000000000000000004910446753                               093849367135
01800010516008130001201512312016081120151231074100005646SOL000000000004910PINEDA CASTRO SONIA SOLEDAD   0000000000000000000000000000000000000000000000000000000000000000000000000000000000000004910445521                               140257278943
01800010516012160001201512312016081120151231080100003541SOL000000000004910NIQUIN SANCHEZ NOEMIA IVONNE  0000000000000000000000000000000000000000000000000000000000000000000000000000000000000004910447611                               161856696340
01800010516015160001201512312016081120151231077100003809SOL000000000004910TAFUR ZAPATA ERICK ANTONIO    0000000000000000000000000000000000000000000000000000000000000000000000000000000000000004910446308                               095520428802
01800010516016160001201512312016081120151231074100000331SOL000000000004910SALAZAR RODRIGUEZ LAYDI INGRID0000000000000000000000000000000000000000000000000000000000000000000000000000000000000004910446542                               151955495568
01800010516017160001201512312016081120151231077100003445SOL000000000004910CHAVEZ ESPINOZA ANGELICA THALI0000000000000000000000000000000000000000000000000000000000000000000000000000000000000004910445667                               120922939985
01800010516019160001201512312016081120151231077100003814SOL000000000004910DE LA CRUZ CALDERON DARIL JOHA0000000000000000000000000000000000000000000000000000000000000000000000000000000000000004910445943                               090732258658
01800010516021150001201512312016081120151231075200001627SOL000000000004910ALCANTARA SALAZAR PEDRITO LUIS0000000000000000000000000000000000000000000000000000000000000000000000000000000000000004910445731                               125127082075
01800010516025160001201512312016081120151231075700002384SOL000000000004910CABRERA MARTOS LORENA ESMERALD0000000000000000000000000000000000000000000000000000000000000000000000000000000000000004910445960                               092352314278
01800010516026160001201512312016081120151231077100003814SOL000000000004910CABREJOS RODRIGUEZ HUMBERTO CA0000000000000000000000000000000000000000000000000000000000000000000000000000000000000004910447009                               103246572878
01800010517001160001201512312016081120151231074100002285SOL000000000004910PEREYRA DIAZ ORESTES ALEJANDRO0000000000000000000000000000000000000000000000000000000000000000000000000000000000000004910447627                               162247710137
01800010519001160001201512312016081120151231077100003445SOL000000000004910MAMANI UGARTE GRACEY ANDREA   0000000000000000000000000000000000000000000000000000000000000000000000000000000000000004910446644                               081401120599
01800010519002160001201512312016081120151231020100002314SOL000000000004910MURAMATSU MENDEZ MARK DENNIS  0000000000000000000000000000000000000000000000000000000000000000000000000000000000000004910446979                               100611470326
01800010519003160001201512312016081120151231074100002984SOL000000000004910GUEVARA ALVARADO GLORIA ENNA  0000000000000000000000000000000000000000000000000000000000000000000000000000000000000004910447051                               115025872205
01800010519011160001201512312016081120151231074100005881SOL000000000004910COCHACHES ALVAREZ GABRIELA DEL0000000000000000000000000000000000000000000000000000000000000000000000000000000000000004910446913                               150134439328
01800010519012160001201512312016081120151231074300001701SOL000000000004910ARROYO POLO JANELLE DANAE     0000000000000000000000000000000000000000000000000000000000000000000000000000000000000004910446563                               102946561250
01800010519013160001201512312016081120151231074100000331SOL000000000004910LAYNES LEON JUAN PABLO        0000000000000000000000000000000000000000000000000000000000000000000000000000000000000004910446970                               121345955635
01800010519021160001201512312016081120151231081300001375SOL000000000004910URBINA SALDANA JERSY GUADALUPE0000000000000000000000000000000000000000000000000000000000000000000000000000000000000004910446726                               151938494607
01800010520001150001201512312016081120151231074100002984SOL000000000004910OLIVARES HERRERA PERCY        0000000000000000000000000000000000000000000000000000000000000000000000000000000000000004910447954                               124504061506
01800010520004150001201512312016081120151231074100009637SOL000000000009760LEYVA LLANOS JOSE GUSTAVO     0000000000000000000000000000000000000000000000000000000000000000000000000000000000000009760448012                               121246952137
01800010523006160001201512312016081120151231075700004516SOL000000000004910NOVOA VEREAU KATHY SOFIA      0000000000000000000000000000000000000000000000000000000000000000000000000000000000000004910446045                               141347308072
01800010523009110001201512312016081120151231075600001026SOL000000000004910MURGA DONATO JOSE ROBINSON    0000000000000000000000000000000000000000000000000000000000000000000000000000000000000004910446487                               092810328995
01800010523009120001201512312016081120151231075400001519SOL000000000004910LUCHO MENDOCILLA LOYDA ELIZABE0000000000000000000000000000000000000000000000000000000000000000000000000000000000000004910445570                               111844751798
01800010523011160001201512312016081120151231080100000973SOL000000000004910CHAVEZ CUBA LUCERO JACKELINE  0000000000000000000000000000000000000000000000000000000000000000000000000000000000000004910448070                               151416477965
01800010523014120001201512312016081120151231075700002385SOL000000000004910MENDOZA QUIJADA SUAHILY DANAKY0000000000000000000000000000000000000000000000000000000000000000000000000000000000000004910445572                               122523997082
01800010523015140001201512312016081120151231074100004670SOL000000000004910ABURTO TRUJILLO GUSTAVO MAX   0000000000000000000000000000000000000000000000000000000000000000000000000000000000000004910446386                               154932593590
01800010524003160001201512312016081120151231074100003211SOL000000000004910LIZA AVALOS JUAN CARLOS       0000000000000000000000000000000000000000000000000000000000000000000000000000000000000004910446135                               080559104598
01800010524004160001201512312016081120151231075700002377SOL000000000004910LECCA RUIZ JOAO RONALDINHO    0000000000000000000000000000000000000000000000000000000000000000000000000000000000000004910446920                               112252767536
01800010524005160001201512312016081120151231074100005759SOL000000000004910RODRIGUEZ PAREDES ANTHONY  MAR0000000000000000000000000000000000000000000000000000000000000000000000000000000000000004910447279                               093627358630
01800010524006140001201512312016081120151231077100006773SOL000000000004910VERA OREZZOLI ALVARO ANTONIO  0000000000000000000000000000000000000000000000000000000000000000000000000000000000000004910447804                               141118301316
01800010524006160001201512312016081120151231074100001991SOL000000000004910VELASQUEZ SOLORZANO LUCERO LIS0000000000000000000000000000000000000000000000000000000000000000000000000000000000000004910445807                               080634105706
01800010524007150001201512312016081120151231074100009637SOL000000000004910LUNA VICTORIA GUTIERREZ PAOLO 0000000000000000000000000000000000000000000000000000000000000000000000000000000000000004910447675                               172917941658
01800010524007160001201512312016081120151231074100004671SOL000000000004910LARA ARANA ELIZABETH MAYLIN   0000000000000000000000000000000000000000000000000000000000000000000000000000000000000004910446719                               164259782546
01800010524008160001201512312016081120151231074100002286SOL000000000004910CARRIL CHAVEZ JERRY ANDERSON  0000000000000000000000000000000000000000000000000000000000000000000000000000000000000004910446919                               112434774121
01800010524009150001201512312016081120151231076000005485SOL000000000004910ATOCHE CARDENAS DIANA MIREYA  0000000000000000000000000000000000000000000000000000000000000000000000000000000000000004910446765                               091012267313
01800010524013160001201512312016081120151231074100000334SOL000000000004910ROJAS MEDINA GLADYS MAGNOLIA  0000000000000000000000000000000000000000000000000000000000000000000000000000000000000004910447636                               122013979177
01800010524014160001201512312016081120151231077100003809SOL000000000004910LAYZA NEGREIROS VALERIA REGINA0000000000000000000000000000000000000000000000000000000000000000000000000000000000000004910447630                               115047873591
01800010524016160001201512312016081120151231077100003809SOL000000000004910CHAUPE RODRIGUEZ ANTONIO JUNIO0000000000000000000000000000000000000000000000000000000000000000000000000000000000000004910446600                               121418957597
01800010524017160001201512312016081120151231074300001702SOL000000000004910CASTILLO FERRER CHRISTIAN JOSU0000000000000000000000000000000000000000000000000000000000000000000000000000000000000004910446968                               130315118308
01800010526008120001201512312016081120151231077100003808SOL000000000004910GAVIDIA VELA LUCIANA ANAIS    0000000000000000000000000000000000000000000000000000000000000000000000000000000000000004910447309                               121553963382
01800010527004160001201512312016081120151231074400002966SOL000000000004910HUAMAN TAPIA CARLOS RODRIGO   0000000000000000000000000000000000000000000000000000000000000000000000000000000000000004910447067                               105211648785
01800010527010160001201512312016081120151231075700002377SOL000000000004910SIPIRAN MORILLO NATHALY LIZBET0000000000000000000000000000000000000000000000000000000000000000000000000000000000000004910446341                               153847557173
01800010527014160001201512312016081120151231075700002379SOL000000000004910RODRIGUEZ MELENDEZ ERICK      0000000000000000000000000000000000000000000000000000000000000000000000000000000000000004910447158                               101729513698
01800010527015160001201512312016081120151231075700004515SOL000000000004910CARDENAS GRADOS MARTHA FIORELL0000000000000000000000000000000000000000000000000000000000000000000000000000000000000004910445598                               153914558542
01800010527016160001201512312016081120151231075700002384SOL000000000004910ARTEAGA SANCHEZ HEYNER JHONEL 0000000000000000000000000000000000000000000000000000000000000000000000000000000000000004910447337                               085858232260
01800010527019150001201512312016081120151231074100005639SOL000000000029160VELASQUEZ BENITES YORDY MAVERI0000000000000000000000000000000000000000000000000000000000000000000000000000000000000029160446928                               120755934900
01800010527021160001201512312016081120151231074100002285SOL000000000004910SANCHEZ GOMEZ WILLIANS EDUARDO0000000000000000000000000000000000000000000000000000000000000000000000000000000000000004910446347                               082248137367
01800010527024160001201512312016081120151231074400002966SOL000000000004910TOLEDO MESTANZA MARCO AUGUSTO 0000000000000000000000000000000000000000000000000000000000000000000000000000000000000004910446311                               092439316833
01800010529008160001201512312016081120151231074100002285SOL000000000004910OTINIANO SALVATIERRA FIORELLA 0000000000000000000000000000000000000000000000000000000000000000000000000000000000000004910448320                               092633323323
01800010534005160001201512312016081120151231074400002966SOL000000000004910CERNA TAMBO ALVARO EMMANUEL   0000000000000000000000000000000000000000000000000000000000000000000000000000000000000004910447285                               091215274203
01800010534009160001201512312016081120151231077100003814SOL000000000004910RUIZ JULIAN WILLY JORDAN      0000000000000000000000000000000000000000000000000000000000000000000000000000000000000004910447186                               130753132092
01800010537012160001201512312016081120151231075700002384SOL000000000004910LEIVA ORBEGOSO DIEGO ARTURO   0000000000000000000000000000000000000000000000000000000000000000000000000000000000000004910446390                               133737212365
01800010540005150001201512312016081120151231075700002379SOL000000000004910RUIZ MENDEZ DARLIN DANILO     0000000000000000000000000000000000000000000000000000000000000000000000000000000000000004910446115                               105741670312
01800010707001160001201512312016081120151231074100002286SOL000000000004910TERRONES SEGURA LUCIA DEL PILA0000000000000000000000000000000000000000000000000000000000000000000000000000000000000004910448074                               113545816982
01800010707003140001201512312016081120151231074100000334SOL000000000004910CABRERA ZAVALETA MIRNA YULISSA0000000000000000000000000000000000000000000000000000000000000000000000000000000000000004910447860                               115851902502
01800010907001150001201512312016081120151231077100003809SOL000000000025180DIAZ VARGAS KARINA ODALIS     0000000000000000000000000000000000000000000000000000000000000000000000000000000000000025180447979                               093100339018
01800010913001140001201512312016081120151231075700002377SOL000000000025180DE LA CRUZ CHAVEZ CARLOS HUMBE0000000000000000000000000000000000000000000000000000000000000000000000000000000000000025180445815                               113526815800
01800014501001160001201512312016081120151231074100001991SOL000000000004910CARBAJAL VIGO JACKELINE DEL PI0000000000000000000000000000000000000000000000000000000000000000000000000000000000000004910446858                               113541816706
01800014501003160001201512312016081120151231074100009637SOL000000000004910SUYON GARCIA NICOLE ALEXANDRA 0000000000000000000000000000000000000000000000000000000000000000000000000000000000000004910446811                               174556984316
01800014507001150001201512312016081120151231077100003808SOL000000000007410VALVERDE TAPIA REMZED JAPHET  0000000000000000000000000000000000000000000000000000000000000000000000000000000000000007410447520                               124528062868
01800014509001160001201512312016081120151231074400001625SOL000000000004910CRUZ DE LA CRUZ DEVORA CECILIA0000000000000000000000000000000000000000000000000000000000000000000000000000000000000004910448043                               133130196477
01800014514003160001201512312016081120151231074400001625SOL000000000004910PERALTA SAUCEDO JOEL ANDERSON 0000000000000000000000000000000000000000000000000000000000000000000000000000000000000004910447839                               103237572309
01800014533001150001201512312016081120151231075600001630SOL000000000004910TACILLA VILELA MAX FERNANDO   0000000000000000000000000000000000000000000000000000000000000000000000000000000000000004910448315                               153357540826
01800015101006160001201512312016081120151231074100000333SOL000000000004910ESQUIVEL CHUQUIMANGO ELIANA LU0000000000000000000000000000000000000000000000000000000000000000000000000000000000000004910447969                               164127776880
01800015105004150001201512312016081120151231074100004671SOL000000000004910CAMACHO VIGO KATLEEN GABRIELA 0000000000000000000000000000000000000000000000000000000000000000000000000000000000000004910448131                               164032773509
01800015105005150001201512312016081120151231075200001628SOL000000000009760URBINA BRICENO JOLVI JEAN PIEE0000000000000000000000000000000000000000000000000000000000000000000000000000000000000009760447762                               145348417400
01800015105014130001201512312016081120151231074100005640SOL000000000004910PLASENCIA COTRINA EDWARD STEVI0000000000000000000000000000000000000000000000000000000000000000000000000000000000000004910447364                               091940299725
01800015105014140001201512312016081120151231074100002286SOL000000000004910MONTALBAN CRUZ RUTH JUDITH    0000000000000000000000000000000000000000000000000000000000000000000000000000000000000004910447845                               164258782524
01800015105014160001201512312016081120151231075300002166SOL000000000004910ALEMAN CALDERON MARIA CAROLINA0000000000000000000000000000000000000000000000000000000000000000000000000000000000000004910446609                               141535312932
01800015105015140001201512312016081120151231074100004671SOL000000000004910CRUZ ZEGARRA KATHIA KEYKO     0000000000000000000000000000000000000000000000000000000000000000000000000000000000000004910447589                               112246767149
01800015105018110001201512312016081120151231027400000929SOL000000000004910ESPEJO BOCANEGRA JORGE MARTIN 0000000000000000000000000000000000000000000000000000000000000000000000000000000000000004910447737                               163440752156
01800015105021120001201512312016081120151231075700004516SOL000000000004910RODRIGUEZ JARA YOSELIN ISABEL 0000000000000000000000000000000000000000000000000000000000000000000000000000000000000004910447098                               120748934496
01800015105022130001201512312016081120151231075700004516SOL000000000004910URCIA CRUZ CARLOS JESUS       0000000000000000000000000000000000000000000000000000000000000000000000000000000000000004910446632                               101011485481
01800015105025160001201512312016081120151231074400002966SOL000000000004910SANCHEZ MIRANDA FRANKLIN YASMI0000000000000000000000000000000000000000000000000000000000000000000000000000000000000004910446850                               103538583713
01800015105026140001201512312016081120151231074100002285SOL000000000004910AZNARAN ABARCA PEDRO FRANCISCO0000000000000000000000000000000000000000000000000000000000000000000000000000000000000004910446464                               084204183664
01800015105028130001201512312016081120151231074100000331SOL000000000004910ANDERSON RODRIGUEZ EDUARDO JOS0000000000000000000000000000000000000000000000000000000000000000000000000000000000000004910447169                               164123776623
01800015107008110001201512312016081120151231074900002390SOL000000000004910TORRES SANCHEZ BRYAN JOHANNY  0000000000000000000000000000000000000000000000000000000000000000000000000000000000000004910447443                               120250916727
01800015107014160001201512312016081120151231074100002285SOL000000000004910SANCHEZ BACA HUGO CARLOS      0000000000000000000000000000000000000000000000000000000000000000000000000000000000000004910447631                               162008700607
01800015109003160001201512312016081120151231074900002390SOL000000000004910ARENAS CASTRO VANESA MARIBEL  0000000000000000000000000000000000000000000000000000000000000000000000000000000000000004910447699                               104011601445
01800015109008160001201512312016081120151231074800001518SOL000000000004910ROJAS DAVALOS INGRID STEFANY  0000000000000000000000000000000000000000000000000000000000000000000000000000000000000004910448114                               151056467381
01800015109009160001201512312016081120151231075700002388SOL000000000004910ANDRADE AVENDANO KAREN ELIZABE0000000000000000000000000000000000000000000000000000000000000000000000000000000000000004910448037                               101831517718
01800015109013160001201512312016081120151231074400003105SOL000000000004910CIPRIANO CASTILLO MARIA DE LOS0000000000000000000000000000000000000000000000000000000000000000000000000000000000000004910447793                               131831162253
01800015109016160001201512312016081120151231074100000331SOL000000000004910SOTO VARAS SILVIA CAROLINA    0000000000000000000000000000000000000000000000000000000000000000000000000000000000000004910447851                               154451577660
01800015109017150001201512312016081120151231074400001625SOL000000000004910COSAVALENTE LESCANO VICTORIA A0000000000000000000000000000000000000000000000000000000000000000000000000000000000000004910447711                               134908242407
01800015109017160001201512312016081120151231077100003445SOL000000000004910CHAVEZ CERNA DAMARIS NOEMI    0000000000000000000000000000000000000000000000000000000000000000000000000000000000000004910447787                               130121112722
01800015109020160001201512312016081120151231077100006773SOL000000000004910CASTILLO ZAVALETA SARA ELIZABE0000000000000000000000000000000000000000000000000000000000000000000000000000000000000004910447940                               130130113120
01800015111017160001201512312016081120151231078100002651SOL000000000004910MACEDO PLASENCIA SEBASTIAN MAT0000000000000000000000000000000000000000000000000000000000000000000000000000000000000004910446825                               100353461432
01800015113002120001201512312016081120151231074100003211SOL000000000004910GHIGLINO PEREZ GIAN FRANCO JES0000000000000000000000000000000000000000000000000000000000000000000000000000000000000004910445637                               124947076800
01800015113002160001201512312016081120151231074100000331SOL000000000004910TISNADO CARHUAJULCA LUIS GERAR0000000000000000000000000000000000000000000000000000000000000000000000000000000000000004910445836                               081441121878
01800015113004160001201512312016081120151231074100002287SOL000000000004910OBANDO MANTILLA JERSON WALDIR 0000000000000000000000000000000000000000000000000000000000000000000000000000000000000004910445685                               173508959082
01800015113007160001201512312016081120151231074100002286SOL000000000004910MEZA AGUILAR VALERY NIKITA    0000000000000000000000000000000000000000000000000000000000000000000000000000000000000004910445538                               172542930121
01800015113008150001201512312016081120151231075200001627SOL000000000004910ANGULO DIAZ ANGHELLA STEFANI  0000000000000000000000000000000000000000000000000000000000000000000000000000000000000004910445665                               101021486105
01800015113012140001201512312016081120151231075300002168SOL000000000004910CHAVEZ RIMAS PAULA MARGARITA  0000000000000000000000000000000000000000000000000000000000000000000000000000000000000004910446119                               131318147592
01800015113016110001201512312016081120151231074100000331SOL000000000019410VASQUEZ MORENO EDWIN GUILLERMO0000000000000000000000000000000000000000000000000000000000000000000000000000000000000019410446680                               113719822937
01800015113019160001201512312016081120151231075700002379SOL000000000004910OTINIANO GUTIERREZ MILAGROS YA0000000000000000000000000000000000000000000000000000000000000000000000000000000000000004910445646                               101127490435
01800015113027160001201512312016081120151231074100005639SOL000000000004910GALVEZ SULLON ABIGAIL ALEXANDR0000000000000000000000000000000000000000000000000000000000000000000000000000000000000004910445729                               105650666993
01800015114013160001201512312016081120151231074100002285SOL000000000004910PONCE VASQUEZ HECTOR PAUL     0000000000000000000000000000000000000000000000000000000000000000000000000000000000000004910446156                               094642396198
01800015114017160001201512312016081120151231075700002379SOL000000000004910HUARINGA LLAQUE ABEL HUMBERTO 0000000000000000000000000000000000000000000000000000000000000000000000000000000000000004910448295                               132104169121
01800015115001160001201512312016081120151231074100009637SOL000000000004910VALLEJOS MONCADA CESAR ENMANUE0000000000000000000000000000000000000000000000000000000000000000000000000000000000000004910447894                               172834939287
01800015115005150001201512312016081120151231074100000334SOL000000000014610CASTANEDA VASQUEZ LUIS GUILLER0000000000000000000000000000000000000000000000000000000000000000000000000000000000000014610447160                               100054450034
01800015116001160001201512312016081120151231074100002285SOL000000000004910MONZON VARGAS HITALO JHOY     0000000000000000000000000000000000000000000000000000000000000000000000000000000000000004910446212                               124508061784
01800015116007140001201512312016081120151231077100003809SOL000000000004910APONTE URRUNAGA BRYAN JEOVANI 0000000000000000000000000000000000000000000000000000000000000000000000000000000000000004910446604                               120733933517
01800015116011120001201512312016081120151231077100003814SOL000000000004910SANDOVAL EUSTAQUIO DIANA SHEYL0000000000000000000000000000000000000000000000000000000000000000000000000000000000000004910445971                               165136813506
01800015116011160001201512312016081120151231074100002287SOL000000000004910DOMINGUEZ CHAVEZ LESLIE GIANEL0000000000000000000000000000000000000000000000000000000000000000000000000000000000000004910446263                               095121413687
01800015116013160001201512312016081120151231075700004516SOL000000000004910BACILIO ROLDAN CARLOS DANIEL  0000000000000000000000000000000000000000000000000000000000000000000000000000000000000004910445587                               112010757197
01800015116014140001201512312016081120151231074100002984SOL000000000019460TAVERA VILCHEZ JUNIOR MIGUEL  0000000000000000000000000000000000000000000000000000000000000000000000000000000000000019460446863                               133930217175
01800015116017130001201512312016081120151231029600001495SOL000000000004910PINZON HUAMAN ALEXANDER       0000000000000000000000000000000000000000000000000000000000000000000000000000000000000004910446080                               133538207147
01800015116017160001201512312016081120151231074900002390SOL000000000004910GARCIA SEVILLANO VICTOR PEDRO 0000000000000000000000000000000000000000000000000000000000000000000000000000000000000004910446395                               160906661985
01800015116018160001201512312016081120151231074100002286SOL000000000004910PALACIOS LAVADO GERSON WILFRED0000000000000000000000000000000000000000000000000000000000000000000000000000000000000004910446334                               124455060995
01800015116020140001201512312016081120151231080500001713SOL000000000004910PAREDES BURGOS JAVIER JOSELITO0000000000000000000000000000000000000000000000000000000000000000000000000000000000000004910448209                               153626549097
01800015116020160001201512312016081120151231074900002390SOL000000000004910MANTILLA BACILIO ANDREA ELIZAB0000000000000000000000000000000000000000000000000000000000000000000000000000000000000004910445577                               091615287735
01800015116023160001201512312016081120151231074100005759SOL000000000004910BARRETO ALVAREZ JONATHAN JUNIO0000000000000000000000000000000000000000000000000000000000000000000000000000000000000004910446584                               162155707030
01800015116024160001201512312016081120151231074100002287SOL000000000004910DE LA CRUZ CUZCO YOSSYMAR JAIR0000000000000000000000000000000000000000000000000000000000000000000000000000000000000004910446168                               154900591901
01800015119003140001201512312016081120151231074100004670SOL000000000004910ARGOMEDO ALQUIZAR ELIZABETH ST0000000000000000000000000000000000000000000000000000000000000000000000000000000000000004910445930                               101615508952
01800015119005160001201512312016081120151231074100001991SOL000000000004910ULLOA PEREZ MARIA NELLY LEONOR0000000000000000000000000000000000000000000000000000000000000000000000000000000000000004910447724                               171131883196
01800015119009160001201512312016081120151231075700004515SOL000000000004910VENEROS TORRES ALEJANDRA FIORE0000000000000000000000000000000000000000000000000000000000000000000000000000000000000004910446625                               163811764756
01800015119017160001201512312016081120151231075700002384SOL000000000004910MELENDEZ NINGLE ALEXANDRA CARO0000000000000000000000000000000000000000000000000000000000000000000000000000000000000004910447632                               112453775354
01800015120016160001201512312016081120151231074100003211SOL000000000004910DELGADO BACA HUGO GONZALO     0000000000000000000000000000000000000000000000000000000000000000000000000000000000000004910448275                               170327855514
01800015123002130001201512312016081120151231074100009637SOL000000000009760YBANEZ SANTOS KEYKO JOSSELYN  0000000000000000000000000000000000000000000000000000000000000000000000000000000000000009760448270                               092615322246
01800015123003120001201512312016081120151231077100003814SOL000000000004910NEYRA DE GRACIA CINDY TATIANA 0000000000000000000000000000000000000000000000000000000000000000000000000000000000000004910446207                               093311346928
01800015123005120001201512312016081120151231077100003809SOL000000000004910ZAPATA CACERES ALDO MANUEL    0000000000000000000000000000000000000000000000000000000000000000000000000000000000000004910447375                               151440479157
01800015123006150001201512312016081120151231075700002379SOL000000000004910ARRIAGA VASQUEZ ELIAS ENRIQUE 0000000000000000000000000000000000000000000000000000000000000000000000000000000000000004910447897                               105105644431
01800015123007160001201512312016081120151231074100000025SOL000000000004910VENTURA PONCE ANDREA EVELIN   0000000000000000000000000000000000000000000000000000000000000000000000000000000000000004910447840                               165535827800
01800015123009130001201512312016081120151231075700002385SOL000000000004910CHIROQUE INONAN DIANA KATHERIN0000000000000000000000000000000000000000000000000000000000000000000000000000000000000004910447180                               152804521872
01800015123010140001201512312016081120151231074100002984SOL000000000004910MEDINA ZAVALETA BRUNO PAOLO   0000000000000000000000000000000000000000000000000000000000000000000000000000000000000004910446329                               125742101621
01800015123012160001201512312016081120151231077100003445SOL000000000004910ALFARO MELENDEZ JUAN LUIS ANTO0000000000000000000000000000000000000000000000000000000000000000000000000000000000000004910447153                               104213609450
01800015124002160001201512312016081120151231074100000331SOL000000000004910CHAVARRY CABRERA BRYCE MIRELLA0000000000000000000000000000000000000000000000000000000000000000000000000000000000000004910446651                               120216914692
01800015124004160001201512312016081120151231077100003809SOL000000000004910PAREDES VARELA JENNY MARITZA  0000000000000000000000000000000000000000000000000000000000000000000000000000000000000004910447855                               114939869562
01800015124005160001201512312016081120151231074100009637SOL000000000004910SANCHEZ SULLON JENNYFER ESTHER0000000000000000000000000000000000000000000000000000000000000000000000000000000000000004910446857                               085915233102
01800015124008160001201512312016081120151231074100005640SOL000000000004910LOZANO GUEVARA LUIS ALBERTO   0000000000000000000000000000000000000000000000000000000000000000000000000000000000000004910446221                               093925369283
01800015124010160001201512312016081120151231075700002379SOL000000000004910REYNA RAMOS NELSON SANTIAGO   0000000000000000000000000000000000000000000000000000000000000000000000000000000000000004910446790                               110416695714
01800015124013160001201512312016081120151231075700002377SOL000000000004910ZETA RIMAICUNA LADY GIANELLA  0000000000000000000000000000000000000000000000000000000000000000000000000000000000000004910447653                               162112704414
01800015124016160001201512312016081120151231074100002984SOL000000000004910ALAYO JURADO LOREN ADRIANA    0000000000000000000000000000000000000000000000000000000000000000000000000000000000000004910446175                               120207914180
01800015124017160001201512312016081120151231075700004516SOL000000000004910ZARE CRUZ LUIS DAVID          0000000000000000000000000000000000000000000000000000000000000000000000000000000000000004910446177                               112535777984
01800015125003160001201512312016081120151231074100000025SOL000000000004910BENITES NIMA ESTEFANY NICOLL  0000000000000000000000000000000000000000000000000000000000000000000000000000000000000004910447626                               103044564975
01800015126004130001201512312016081120151231074100004670SOL000000000004910NEYRA LUZURIAGA KARY JANNET   0000000000000000000000000000000000000000000000000000000000000000000000000000000000000004910447398                               131301146824
01800015126017160001201512312016081120151231074100002984SOL000000000004910HUALCAS AVILA GENESIS NOEMI   0000000000000000000000000000000000000000000000000000000000000000000000000000000000000004910447544                               103225571521
01800015127003160001201512312016081120151231074100002285SOL000000000004910MONTENEGRO CHAVEZ WILLIAM PAUL0000000000000000000000000000000000000000000000000000000000000000000000000000000000000004910446364                               164609794116
01800015127005160001201512312016081120151231074100009637SOL000000000004910RUELAS VASQUEZ GIANELLA DAYANA0000000000000000000000000000000000000000000000000000000000000000000000000000000000000004910446174                               095552430855
01800015127006140001201512312016081120151231075700002388SOL000000000004910MONTANEZ JULCAMORO MARISOL VIO0000000000000000000000000000000000000000000000000000000000000000000000000000000000000004910447372                               105728669462
01800015127007160001201512312016081120151231074100002285SOL000000000004910GARCIA LOPEZ PAOLA JANETH     0000000000000000000000000000000000000000000000000000000000000000000000000000000000000004910446759                               115713896759
01800015129005130001201512312016081120151231074100002287SOL000000000014610BECERRA MIRANDA GENESIS MARGHO0000000000000000000000000000000000000000000000000000000000000000000000000000000000000014610447128                               104205608901
01800015132021140001201512312016081120151231074100000334SOL000000000004910AVALOS MIRANDA MILVER ELENER  0000000000000000000000000000000000000000000000000000000000000000000000000000000000000004910447247                               140423282743
01800015135002140001201512312016081120151231075700002377SOL000000000004910LECCA RUIZ EDUARDO CESAR      0000000000000000000000000000000000000000000000000000000000000000000000000000000000000004910448143                               112233766265
01800015136004160001201512312016081120151231077100003809SOL000000000004910BEJARANO REYES MAURICIO ALONSO0000000000000000000000000000000000000000000000000000000000000000000000000000000000000004910446517                               160149636204
01800015137004160001201512312016081120151231074700001832SOL000000000004910SANCHEZ ANGELES SANTOS STEFFAN0000000000000000000000000000000000000000000000000000000000000000000000000000000000000004910446431                               165934841820
01800015140012160001201512312016081120151231075700002379SOL000000000004910CASTANEDA ESCALON VICTOR EDUAR0000000000000000000000000000000000000000000000000000000000000000000000000000000000000004910446904                               135915268994
01800015209001140001201512312016081120151231077100003814SOL000000000004910CASTANEDA ROJAS KEIKO SOFIA   0000000000000000000000000000000000000000000000000000000000000000000000000000000000000004910447640                               141316306637
01800015213001160001201512312016081120151231075700002379SOL000000000004910LEZAMA SANDOVAL JUAN MANUEL   0000000000000000000000000000000000000000000000000000000000000000000000000000000000000004910445842                               103321575037
01800015213004150001201512312016081120151231074100004671SOL000000000004910ROQUE GUADALUPE ZULMY ESTEFANY0000000000000000000000000000000000000000000000000000000000000000000000000000000000000004910445904                               165830838081
01800015219001160001201512312016081120151231074100005759SOL000000000004910EUSTAQUIO ZAVALETA GISSELA MER0000000000000000000000000000000000000000000000000000000000000000000000000000000000000004910446411                               134048220755
01800015227001160001201512312016081120151231074100004671SOL000000000004910CELIS JACINTO ROSA EULALIA    0000000000000000000000000000000000000000000000000000000000000000000000000000000000000004910446478                               112854790789
01800015237002160001201512312016081120151231075700002379SOL000000000004910CARLO SILVA ALEXANDRA         0000000000000000000000000000000000000000000000000000000000000000000000000000000000000004910446428                               134747238903
01800015311002160001201512312016081120151231075600001026SOL000000000004910MARINOS AMARANTO YESSENIA AREL0000000000000000000000000000000000000000000000000000000000000000000000000000000000000004910446298                               142330333958
01800015313003150001201512312016081120151231081300003602SOL000000000004910BALAREZO CASTANEDA LALY MARICH0000000000000000000000000000000000000000000000000000000000000000000000000000000000000004910445678                               123008013004
01800015316002160001201512312016081120151231074100004670SOL000000000004910ARANDA CASTILLO BRAYAN ANTHONY0000000000000000000000000000000000000000000000000000000000000000000000000000000000000004910445990                               155100598761
01800019632001130001201512312016081120151231074900002390SOL000000000004910VERGARA DELGADO MIGUEL ANGEL  0000000000000000000000000000000000000000000000000000000000000000000000000000000000000004910447619                               115133876413
01800022024007120001201512312016081120151231080100000973SOL000000000004910CALDERON POLO ILCIAS RICHARD  0000000000000000000000000000000000000000000000000000000000000000000000000000000000000004910448273                               154540580603
01800022024007160001201512312016081120151231080100000971SOL000000000004910QUIROZ CARRANZA KELVIN JUAN   0000000000000000000000000000000000000000000000000000000000000000000000000000000000000004910448251                               150234442483
01800022224001120001201512312016081120151231080100000971SOL000000000004910CRUZ VALDERRAMA MARCOS ANTONIO0000000000000000000000000000000000000000000000000000000000000000000000000000000000000004910448231                               141148302688
01800022705001140001201512312016081120151231081200001221SOL000000000016910DE LA PUENTE CABANILLAS JOSE V0000000000000000000000000000000000000000000000000000000000000000000000000000000000000016910448184                               134126222380
01800022705003140001201512312016081120151231081200001221SOL000000000016910ANTICONA GOICOCHEA ELSA MERLY 0000000000000000000000000000000000000000000000000000000000000000000000000000000000000016910448178                               134205224020
01800022705004140001201512312016081120151231081200006728SOL000000000016910PEREZ SUAREZ LESLY STEFANY    0000000000000000000000000000000000000000000000000000000000000000000000000000000000000016910446565                               130209115111
01800022705022140001201512312016081120151231081100000815SOL000000000016910HONORIO LEZAMA IVAN MANUEL    0000000000000000000000000000000000000000000000000000000000000000000000000000000000000016910446500                               154014562010
01800022905001140001201512312016081120151231081300001375SOL000000000016910GARCIA ABANTO NATALY ALEXANDRA0000000000000000000000000000000000000000000000000000000000000000000000000000000000000016910447678                               101220493767
01800027805010140001201512312016081120151231081300003602SOL000000000016910ALCANTARA RODRIGUEZ MARGIORITT0000000000000000000000000000000000000000000000000000000000000000000000000000000000000016910446312                               124339056816
01800032701011160001201512312016081120151231081100006749SOL000000000016910RAZURI NORIEGA CESAR DIEGO    0000000000000000000000000000000000000000000000000000000000000000000000000000000000000016910447746                               112429773746
01800032701014160001201512312016081120151231081500001500SOL000000000016910BARBA PONCE MARIO SERGIO      0000000000000000000000000000000000000000000000000000000000000000000000000000000000000016910446892                               141939323462
01800032701017160001201512312016081120151231081300003602SOL000000000016910VILCHEZ ARBULU ERIKA NATHALY  0000000000000000000000000000000000000000000000000000000000000000000000000000000000000016910448268                               133222198612
01800032701018160001201512312016081120151231081300003602SOL000000000016910PINGLO NUNEZ GERSON JAMIR     0000000000000000000000000000000000000000000000000000000000000000000000000000000000000016910446606                               103859596816
01800032701026160001201512312016081120151231081500001500SOL000000000016910TIZNADO MARINAS YULEISY PAOLA 0000000000000000000000000000000000000000000000000000000000000000000000000000000000000016910448056                               120219914875
01800032701027160001201512312016081120151231081200002967SOL000000000016910ROMERO PERALTA CARLA JANET    0000000000000000000000000000000000000000000000000000000000000000000000000000000000000016910447182                               113237805154
01800032705005130001201512312016081120151231081200006728SOL000000000016910ESPINOZA MENDOZA DIANA PATRICI0000000000000000000000000000000000000000000000000000000000000000000000000000000000000016910447193                               112018757689
01800032705007150001201512312016081120151231081100006749SOL000000000016910CUEVA ROJAS GERARDO ANDREE    0000000000000000000000000000000000000000000000000000000000000000000000000000000000000016910446574                               102237533625
01800032705008150001201512312016081120151231081800004184SOL000000000016910MACHUCA RAMIREZ MILAGROS ARLIT0000000000000000000000000000000000000000000000000000000000000000000000000000000000000016910446649                               095930444747
01800032705008160001201512312016081120151231081300003602SOL000000000016910HERNANDEZ ALBITRES ERICA YECEN0000000000000000000000000000000000000000000000000000000000000000000000000000000000000016910447859                               103026563778
01800032705009160001201512312016081120151231081300003602SOL000000000016910CORREA QUISPE ANA KARLA       0000000000000000000000000000000000000000000000000000000000000000000000000000000000000016910446712                               083736171214
01800032705011160001201512312016081120151231081300001375SOL000000000016910PEREZ SUAREZ ELIANA PAOLA     0000000000000000000000000000000000000000000000000000000000000000000000000000000000000016910446611                               083749171788
01800032705012120001201512312016081120151231081300003602SOL000000000016910SERRANO HERNANDEZ JUAN CARLOS 0000000000000000000000000000000000000000000000000000000000000000000000000000000000000016910448167                               120628929655
01800032705012130001201512312016081120151231081300001276SOL000000000016910TERRONES ROMAN GESENIA MEDALIT0000000000000000000000000000000000000000000000000000000000000000000000000000000000000016910447977                               120108910621
01800032705013160001201512312016081120151231081300003602SOL000000000016910HONORIO TANTA CYNTHIA CAROLINA0000000000000000000000000000000000000000000000000000000000000000000000000000000000000016910447142                               083543166204
01800032705014120001201512312016081120151231081300003602SOL000000000021760RIVADENEIRA VENTURA SAIRA IVON0000000000000000000000000000000000000000000000000000000000000000000000000000000000000021760447012                               092543320379
01800032705014130001201512312016081120151231081200001221SOL000000000016910IMAN GUEVARA JOSE BRAHAYAN    0000000000000000000000000000000000000000000000000000000000000000000000000000000000000016910447188                               112051759822
01800032705015110001201512312016081120151231081300001276SOL000000000016910ANGULO SOLANO MONICA MARISOL  0000000000000000000000000000000000000000000000000000000000000000000000000000000000000016910446590                               121632965721
01800032705018130001201512312016081120151231081300001276SOL000000000016910CABANILLAS BURGOS DANIEL ADRIA0000000000000000000000000000000000000000000000000000000000000000000000000000000000000016910447299                               103749592267
01800032705018150001201512312016081120151231081200006728SOL000000000016910CASTANEDA GUARNIZ MIRTHIA ARAC0000000000000000000000000000000000000000000000000000000000000000000000000000000000000016910447123                               084313186970
01800032705019130001201512312016081120151231081300003602SOL000000000016910PACHERRES JIMENEZ ASTRILD ESTE0000000000000000000000000000000000000000000000000000000000000000000000000000000000000016910446895                               100456465567
01800032705019150001201512312016081120151231081300003602SOL000000000016910ROJAS RAZURI PEDRO ANTONIO    0000000000000000000000000000000000000000000000000000000000000000000000000000000000000016910446836                               093416350856
01800032705019160001201512312016081120151231000100002793SOL000000000016910HERNANDEZ MONCADA BELLA PRISCI0000000000000000000000000000000000000000000000000000000000000000000000000000000000000016910447007                               112724784869
01800032705020150001201512312016081120151231081200006728SOL000000000016910CABANILLAS RUIZ JENNIFFER YEHE0000000000000000000000000000000000000000000000000000000000000000000000000000000000000016910448213                               140843294289
01800032705022130001201512312016081120151231081500001499SOL000000000021760CABANILLAS RAMIREZ BRAYAN ANTH0000000000000000000000000000000000000000000000000000000000000000000000000000000000000021760446729                               095349422983
01800032705023160001201512312016081120151231081800004184SOL000000000016910SALINAS TERAN LILI AMPARITO   0000000000000000000000000000000000000000000000000000000000000000000000000000000000000016910446935                               093817365160
01800032705024150001201512312016081120151231081200001221SOL000000000016910LAZARO GONZALES EVELIN WINDY  0000000000000000000000000000000000000000000000000000000000000000000000000000000000000016910447610                               084033179480
01800032705024160001201512312016081120151231081500001499SOL000000000016910VENTURA ROMERO SEGUNDO MISAEL 0000000000000000000000000000000000000000000000000000000000000000000000000000000000000016910446929                               092130306177
01800032709004130001201512312016081120151231081500001500SOL000000000016910BENITES FLORES SAIRA IVONEE MA0000000000000000000000000000000000000000000000000000000000000000000000000000000000000016910447686                               110504698867
01800032709013160001201512312016081120151231081100000815SOL000000000016910COLLANTES VILCA ISABELLA LISET0000000000000000000000000000000000000000000000000000000000000000000000000000000000000016910446760                               163316747054
01800032709020130001201512312016081120151231081500001500SOL000000000016910ZAPATA YENGLE ANA KATICZA DE L0000000000000000000000000000000000000000000000000000000000000000000000000000000000000016910447617                               110403694850
01800032724028160001201512312016081120151231081100000815SOL000000000016910VENTURA VENTURA LUIS GRABIEL  0000000000000000000000000000000000000000000000000000000000000000000000000000000000000016910448287                               153729552675
01800032733006110001201512312016081120151231081300003602SOL000000000016910ZAVALETA VELASQUEZ ROSSEN JASM0000000000000000000000000000000000000000000000000000000000000000000000000000000000000016910448326                               121642966375
01800033301005160001201512312016081120151231081500001500SOL000000000016910JUAREZ HIPOLITO MONICA DE LOS 0000000000000000000000000000000000000000000000000000000000000000000000000000000000000016910447866                               083544166227
01800033305001150001201512312016081120151231081300001375SOL000000000016910CRUZ CHAVEZ ROSA TERESA       0000000000000000000000000000000000000000000000000000000000000000000000000000000000000016910447144                               084653197036
01800033305001160001201512312016081120151231081800004184SOL000000000016910QUIROZ DIAZ LUZ NOEMI         0000000000000000000000000000000000000000000000000000000000000000000000000000000000000016910446676                               094141377645
01800033305002130001201512312016081120151231081300003602SOL000000000016910CERDAN ACUNA YUBITZA LISBET   0000000000000000000000000000000000000000000000000000000000000000000000000000000000000016910446899                               100627471303
01800033305002150001201512312016081120151231081300003602SOL000000000016910ALCANTARA CABANILLAS JHON FLIN0000000000000000000000000000000000000000000000000000000000000000000000000000000000000016910446226                               101642510628
